{
    "contractName": "SuidToken",
    "abi": [
        {
            "inputs": [
                {
                    "internalType": "uint256",
                    "name": "_supply",
                    "type": "uint256"
                }
            ],
            "stateMutability": "nonpayable",
            "type": "constructor"
        },
        {
            "anonymous": false,
            "inputs": [
                {
                    "indexed": true,
                    "internalType": "address",
                    "name": "owner",
                    "type": "address"
                },
                {
                    "indexed": true,
                    "internalType": "address",
                    "name": "spender",
                    "type": "address"
                },
                {
                    "indexed": false,
                    "internalType": "uint256",
                    "name": "value",
                    "type": "uint256"
                }
            ],
            "name": "Approval",
            "type": "event"
        },
        {
            "anonymous": false,
            "inputs": [
                {
                    "indexed": true,
                    "internalType": "address",
                    "name": "previousOwner",
                    "type": "address"
                },
                {
                    "indexed": true,
                    "internalType": "address",
                    "name": "newOwner",
                    "type": "address"
                }
            ],
            "name": "OwnershipTransferred",
            "type": "event"
        },
        {
            "anonymous": false,
            "inputs": [
                {
                    "indexed": true,
                    "internalType": "address",
                    "name": "from",
                    "type": "address"
                },
                {
                    "indexed": true,
                    "internalType": "address",
                    "name": "to",
                    "type": "address"
                },
                {
                    "indexed": false,
                    "internalType": "uint256",
                    "name": "value",
                    "type": "uint256"
                }
            ],
            "name": "Transfer",
            "type": "event"
        },
        {
            "inputs": [
                {
                    "internalType": "address",
                    "name": "owner",
                    "type": "address"
                },
                {
                    "internalType": "address",
                    "name": "spender",
                    "type": "address"
                }
            ],
            "name": "allowance",
            "outputs": [
                {
                    "internalType": "uint256",
                    "name": "",
                    "type": "uint256"
                }
            ],
            "stateMutability": "view",
            "type": "function"
        },
        {
            "inputs": [
                {
                    "internalType": "address",
                    "name": "spender",
                    "type": "address"
                },
                {
                    "internalType": "uint256",
                    "name": "amount",
                    "type": "uint256"
                }
            ],
            "name": "approve",
            "outputs": [
                {
                    "internalType": "bool",
                    "name": "",
                    "type": "bool"
                }
            ],
            "stateMutability": "nonpayable",
            "type": "function"
        },
        {
            "inputs": [
                {
                    "internalType": "address",
                    "name": "account",
                    "type": "address"
                }
            ],
            "name": "balanceOf",
            "outputs": [
                {
                    "internalType": "uint256",
                    "name": "",
                    "type": "uint256"
                }
            ],
            "stateMutability": "view",
            "type": "function"
        },
        {
            "inputs": [
                {
                    "internalType": "uint256",
                    "name": "_amount",
                    "type": "uint256"
                }
            ],
            "name": "buyToken",
            "outputs": [],
            "stateMutability": "nonpayable",
            "type": "function"
        },
        {
            "inputs": [],
            "name": "decimals",
            "outputs": [
                {
                    "internalType": "uint8",
                    "name": "",
                    "type": "uint8"
                }
            ],
            "stateMutability": "view",
            "type": "function"
        },
        {
            "inputs": [
                {
                    "internalType": "address",
                    "name": "spender",
                    "type": "address"
                },
                {
                    "internalType": "uint256",
                    "name": "subtractedValue",
                    "type": "uint256"
                }
            ],
            "name": "decreaseAllowance",
            "outputs": [
                {
                    "internalType": "bool",
                    "name": "",
                    "type": "bool"
                }
            ],
            "stateMutability": "nonpayable",
            "type": "function"
        },
        {
            "inputs": [],
            "name": "generateRewards",
            "outputs": [],
            "stateMutability": "nonpayable",
            "type": "function"
        },
        {
            "inputs": [
                {
                    "internalType": "address",
                    "name": "spender",
                    "type": "address"
                },
                {
                    "internalType": "uint256",
                    "name": "addedValue",
                    "type": "uint256"
                }
            ],
            "name": "increaseAllowance",
            "outputs": [
                {
                    "internalType": "bool",
                    "name": "",
                    "type": "bool"
                }
            ],
            "stateMutability": "nonpayable",
            "type": "function"
        },
        {
            "inputs": [
                {
                    "internalType": "uint256",
                    "name": "newPrice",
                    "type": "uint256"
                }
            ],
            "name": "modifyTokenBuyPrice",
            "outputs": [],
            "stateMutability": "nonpayable",
            "type": "function"
        },
        {
            "inputs": [],
            "name": "name",
            "outputs": [
                {
                    "internalType": "string",
                    "name": "",
                    "type": "string"
                }
            ],
            "stateMutability": "view",
            "type": "function"
        },
        {
            "inputs": [],
            "name": "owner",
            "outputs": [
                {
                    "internalType": "address",
                    "name": "",
                    "type": "address"
                }
            ],
            "stateMutability": "view",
            "type": "function"
        },
        {
            "inputs": [],
            "name": "renounceOwnership",
            "outputs": [],
            "stateMutability": "nonpayable",
            "type": "function"
        },
        {
            "inputs": [],
            "name": "resetRewards",
            "outputs": [],
            "stateMutability": "nonpayable",
            "type": "function"
        },
        {
            "inputs": [
                {
                    "internalType": "uint256",
                    "name": "_stake",
                    "type": "uint256"
                }
            ],
            "name": "stake",
            "outputs": [],
            "stateMutability": "nonpayable",
            "type": "function"
        },
        {
            "inputs": [],
            "name": "symbol",
            "outputs": [
                {
                    "internalType": "string",
                    "name": "",
                    "type": "string"
                }
            ],
            "stateMutability": "view",
            "type": "function"
        },
        {
            "inputs": [],
            "name": "totalSupply",
            "outputs": [
                {
                    "internalType": "uint256",
                    "name": "",
                    "type": "uint256"
                }
            ],
            "stateMutability": "view",
            "type": "function"
        },
        {
            "inputs": [
                {
                    "internalType": "address",
                    "name": "to",
                    "type": "address"
                },
                {
                    "internalType": "uint256",
                    "name": "amount",
                    "type": "uint256"
                }
            ],
            "name": "transfer",
            "outputs": [
                {
                    "internalType": "bool",
                    "name": "",
                    "type": "bool"
                }
            ],
            "stateMutability": "nonpayable",
            "type": "function"
        },
        {
            "inputs": [
                {
                    "internalType": "address",
                    "name": "from",
                    "type": "address"
                },
                {
                    "internalType": "address",
                    "name": "to",
                    "type": "address"
                },
                {
                    "internalType": "uint256",
                    "name": "amount",
                    "type": "uint256"
                }
            ],
            "name": "transferFrom",
            "outputs": [
                {
                    "internalType": "bool",
                    "name": "",
                    "type": "bool"
                }
            ],
            "stateMutability": "nonpayable",
            "type": "function"
        },
        {
            "inputs": [
                {
                    "internalType": "address",
                    "name": "newOwner",
                    "type": "address"
                }
            ],
            "name": "transferOwnership",
            "outputs": [],
            "stateMutability": "nonpayable",
            "type": "function"
        },
        {
            "inputs": [
                {
                    "internalType": "uint256",
                    "name": "_stake",
                    "type": "uint256"
                }
            ],
            "name": "unstake",
            "outputs": [],
            "stateMutability": "nonpayable",
            "type": "function"
        }
    ],
    "bytecode": "60806040526064600a553480156200001657600080fd5b50604051620014b5380380620014b58339810160408190526200003991620002b4565b6040518060400160405280600481526020016314dd5a5960e21b8152506040518060400160405280600381526020016214d55160ea1b81525081600390805190602001906200008a9291906200020e565b508051620000a09060049060208401906200020e565b505050620000bd620000b7620000d060201b60201c565b620000d4565b620000c9338262000126565b5062000331565b3390565b600580546001600160a01b038381166001600160a01b0319831681179093556040519116919082907f8be0079c531659141344cd1fd0a4f28419497f9722a3daafe3b4186f6b6457e090600090a35050565b6001600160a01b038216620001815760405162461bcd60e51b815260206004820152601f60248201527f45524332303a206d696e7420746f20746865207a65726f206164647265737300604482015260640160405180910390fd5b8060026000828254620001959190620002ce565b90915550506001600160a01b03821660009081526020819052604081208054839290620001c4908490620002ce565b90915550506040518181526001600160a01b038316906000907fddf252ad1be2c89b69c2b068fc378daa952ba7f163c4a11628f55a4df523b3ef9060200160405180910390a35050565b8280546200021c90620002f5565b90600052602060002090601f0160209004810192826200024057600085556200028b565b82601f106200025b57805160ff19168380011785556200028b565b828001600101855582156200028b579182015b828111156200028b5782518255916020019190600101906200026e565b50620002999291506200029d565b5090565b5b808211156200029957600081556001016200029e565b600060208284031215620002c757600080fd5b5051919050565b60008219821115620002f057634e487b7160e01b600052601160045260246000fd5b500190565b600181811c908216806200030a57607f821691505b6020821081036200032b57634e487b7160e01b600052602260045260246000fd5b50919050565b61117480620003416000396000f3fe608060405234801561001057600080fd5b506004361061012c5760003560e01c8063834dc984116100ad578063a694fc3a11610071578063a694fc3a14610263578063a9059cbb14610276578063ad29f5da14610289578063dd62ed3e14610291578063f2fde38b146102ca57600080fd5b8063834dc984146102125780638da5cb5b146102255780638e956ee41461024057806395d89b4114610248578063a457c2d71461025057600080fd5b80632e17de78116100f45780632e17de78146101ac578063313ce567146101bf57806339509351146101ce57806370a08231146101e1578063715018a61461020a57600080fd5b806306fdde0314610131578063095ea7b31461014f57806318160ddd1461017257806323b872dd146101845780632d296bf114610197575b600080fd5b6101396102dd565b6040516101469190610efe565b60405180910390f35b61016261015d366004610f6f565b61036f565b6040519015158152602001610146565b6002545b604051908152602001610146565b610162610192366004610f99565b610389565b6101aa6101a5366004610fd5565b6103ad565b005b6101aa6101ba366004610fd5565b6103ba565b60405160128152602001610146565b6101626101dc366004610f6f565b61040a565b6101766101ef366004610fee565b6001600160a01b031660009081526020819052604090205490565b6101aa610449565b6101aa610220366004610fd5565b610488565b6005546040516001600160a01b039091168152602001610146565b6101aa6104b7565b61013961056b565b61016261025e366004610f6f565b61057a565b6101aa610271366004610fd5565b61060c565b610162610284366004610f6f565b610660565b6101aa61066e565b61017661029f366004611009565b6001600160a01b03918216600090815260016020908152604080832093909416825291909152205490565b6101aa6102d8366004610fee565b6106b7565b6060600380546102ec9061103c565b80601f01602080910402602001604051908101604052809291908181526020018280546103189061103c565b80156103655780601f1061033a57610100808354040283529160200191610365565b820191906000526020600020905b81548152906001019060200180831161034857829003601f168201915b5050505050905090565b60003361037d81858561074f565b60019150505b92915050565b600033610397858285610874565b6103a2858585610906565b506001949350505050565b6103b73382610ad4565b50565b33600090815260086020526040812080548392906103d990849061108c565b90915550503360009081526008602052604081205490036103ad576103ff600633610bb3565b506103b73382610ad4565b3360008181526001602090815260408083206001600160a01b038716845290915281205490919061037d90829086906104449087906110a3565b61074f565b6005546001600160a01b0316331461047c5760405162461bcd60e51b8152600401610473906110bb565b60405180910390fd5b6104866000610bcf565b565b6005546001600160a01b031633146104b25760405162461bcd60e51b8152600401610473906110bb565b600a55565b6005546001600160a01b031633146104e15760405162461bcd60e51b8152600401610473906110bb565b60005b6104ee6006610c21565b81101561055b576000610502600683610c2b565b6001600160a01b0381166000908152600860205260408120549192509061052b906064906110f0565b6001600160a01b03909216600090815260096020526040902091909155506105546001826110a3565b90506104e4565b506105666006610c21565b600b55565b6060600480546102ec9061103c565b3360008181526001602090815260408083206001600160a01b0387168452909152812054909190838110156105ff5760405162461bcd60e51b815260206004820152602560248201527f45524332303a2064656372656173656420616c6c6f77616e63652062656c6f77604482015264207a65726f60d81b6064820152608401610473565b6103a2828686840361074f565b6106163382610c37565b33600090815260086020526040812054900361063957610637600633610d7d565b505b33600090815260086020526040812080548392906106589084906110a3565b909155505050565b60003361037d818585610906565b6005546001600160a01b031633146106985760405162461bcd60e51b8152600401610473906110bb565b60005b600b548110156103b7576106b06001826110a3565b905061069b565b6005546001600160a01b031633146106e15760405162461bcd60e51b8152600401610473906110bb565b6001600160a01b0381166107465760405162461bcd60e51b815260206004820152602660248201527f4f776e61626c653a206e6577206f776e657220697320746865207a65726f206160448201526564647265737360d01b6064820152608401610473565b6103b781610bcf565b6001600160a01b0383166107b15760405162461bcd60e51b8152602060048201526024808201527f45524332303a20617070726f76652066726f6d20746865207a65726f206164646044820152637265737360e01b6064820152608401610473565b6001600160a01b0382166108125760405162461bcd60e51b815260206004820152602260248201527f45524332303a20617070726f766520746f20746865207a65726f206164647265604482015261737360f01b6064820152608401610473565b6001600160a01b0383811660008181526001602090815260408083209487168084529482529182902085905590518481527f8c5be1e5ebec7d5bd14f71427d1e84f3dd0314c0f7b2291e5b200ac8c7c3b92591015b60405180910390a3505050565b6001600160a01b03838116600090815260016020908152604080832093861683529290522054600019811461090057818110156108f35760405162461bcd60e51b815260206004820152601d60248201527f45524332303a20696e73756666696369656e7420616c6c6f77616e63650000006044820152606401610473565b610900848484840361074f565b50505050565b6001600160a01b03831661096a5760405162461bcd60e51b815260206004820152602560248201527f45524332303a207472616e736665722066726f6d20746865207a65726f206164604482015264647265737360d81b6064820152608401610473565b6001600160a01b0382166109cc5760405162461bcd60e51b815260206004820152602360248201527f45524332303a207472616e7366657220746f20746865207a65726f206164647260448201526265737360e81b6064820152608401610473565b6001600160a01b03831660009081526020819052604090205481811015610a445760405162461bcd60e51b815260206004820152602660248201527f45524332303a207472616e7366657220616d6f756e7420657863656564732062604482015265616c616e636560d01b6064820152608401610473565b6001600160a01b03808516600090815260208190526040808220858503905591851681529081208054849290610a7b9084906110a3565b92505081905550826001600160a01b0316846001600160a01b03167fddf252ad1be2c89b69c2b068fc378daa952ba7f163c4a11628f55a4df523b3ef84604051610ac791815260200190565b60405180910390a3610900565b6001600160a01b038216610b2a5760405162461bcd60e51b815260206004820152601f60248201527f45524332303a206d696e7420746f20746865207a65726f2061646472657373006044820152606401610473565b8060026000828254610b3c91906110a3565b90915550506001600160a01b03821660009081526020819052604081208054839290610b699084906110a3565b90915550506040518181526001600160a01b038316906000907fddf252ad1be2c89b69c2b068fc378daa952ba7f163c4a11628f55a4df523b3ef9060200160405180910390a35050565b6000610bc8836001600160a01b038416610d92565b9392505050565b600580546001600160a01b038381166001600160a01b0319831681179093556040519116919082907f8be0079c531659141344cd1fd0a4f28419497f9722a3daafe3b4186f6b6457e090600090a35050565b6000610383825490565b6000610bc88383610e85565b6001600160a01b038216610c975760405162461bcd60e51b815260206004820152602160248201527f45524332303a206275726e2066726f6d20746865207a65726f206164647265736044820152607360f81b6064820152608401610473565b6001600160a01b03821660009081526020819052604090205481811015610d0b5760405162461bcd60e51b815260206004820152602260248201527f45524332303a206275726e20616d6f756e7420657863656564732062616c616e604482015261636560f01b6064820152608401610473565b6001600160a01b0383166000908152602081905260408120838303905560028054849290610d3a90849061108c565b90915550506040518281526000906001600160a01b038516907fddf252ad1be2c89b69c2b068fc378daa952ba7f163c4a11628f55a4df523b3ef90602001610867565b6000610bc8836001600160a01b038416610eaf565b60008181526001830160205260408120548015610e7b576000610db660018361108c565b8554909150600090610dca9060019061108c565b9050818114610e2f576000866000018281548110610dea57610dea611112565b9060005260206000200154905080876000018481548110610e0d57610e0d611112565b6000918252602080832090910192909255918252600188019052604090208390555b8554869080610e4057610e40611128565b600190038181906000526020600020016000905590558560010160008681526020019081526020016000206000905560019350505050610383565b6000915050610383565b6000826000018281548110610e9c57610e9c611112565b9060005260206000200154905092915050565b6000818152600183016020526040812054610ef657508154600181810184556000848152602080822090930184905584548482528286019093526040902091909155610383565b506000610383565b600060208083528351808285015260005b81811015610f2b57858101830151858201604001528201610f0f565b81811115610f3d576000604083870101525b50601f01601f1916929092016040019392505050565b80356001600160a01b0381168114610f6a57600080fd5b919050565b60008060408385031215610f8257600080fd5b610f8b83610f53565b946020939093013593505050565b600080600060608486031215610fae57600080fd5b610fb784610f53565b9250610fc560208501610f53565b9150604084013590509250925092565b600060208284031215610fe757600080fd5b5035919050565b60006020828403121561100057600080fd5b610bc882610f53565b6000806040838503121561101c57600080fd5b61102583610f53565b915061103360208401610f53565b90509250929050565b600181811c9082168061105057607f821691505b60208210810361107057634e487b7160e01b600052602260045260246000fd5b50919050565b634e487b7160e01b600052601160045260246000fd5b60008282101561109e5761109e611076565b500390565b600082198211156110b6576110b6611076565b500190565b6020808252818101527f4f776e61626c653a2063616c6c6572206973206e6f7420746865206f776e6572604082015260600190565b60008261110d57634e487b7160e01b600052601260045260246000fd5b500490565b634e487b7160e01b600052603260045260246000fd5b634e487b7160e01b600052603160045260246000fdfea2646970667358221220491172663c276464d82d3f2984f36b1de081917eb90cb948da956183b96bc21264736f6c634300080d0033",
    "sourcePath": "/home/jm/web3/eth/hh_eth/contracts/SuidToken.sol",
    "compiler": {
        "name": "solc",
        "version": "0.8.13+commit.abaa5c0e"
    },
    "functionHashes": {
        "allowance(address,address)": "dd62ed3e",
        "approve(address,uint256)": "095ea7b3",
        "balanceOf(address)": "70a08231",
        "buyToken(uint256)": "2d296bf1",
        "decimals()": "313ce567",
        "decreaseAllowance(address,uint256)": "a457c2d7",
        "generateRewards()": "8e956ee4",
        "increaseAllowance(address,uint256)": "39509351",
        "modifyTokenBuyPrice(uint256)": "834dc984",
        "name()": "06fdde03",
        "owner()": "8da5cb5b",
        "renounceOwnership()": "715018a6",
        "resetRewards()": "ad29f5da",
        "stake(uint256)": "a694fc3a",
        "symbol()": "95d89b41",
        "totalSupply()": "18160ddd",
        "transfer(address,uint256)": "a9059cbb",
        "transferFrom(address,address,uint256)": "23b872dd",
        "transferOwnership(address)": "f2fde38b",
        "unstake(uint256)": "2e17de78"
    },
    "gasEstimates": {
        "creation": {
            "codeDepositCost": "893600",
            "executionCost": "infinite",
            "totalCost": "infinite"
        },
        "external": {
            "allowance(address,address)": "infinite",
            "approve(address,uint256)": "24652",
            "balanceOf(address)": "2629",
            "buyToken(uint256)": "infinite",
            "decimals()": "222",
            "decreaseAllowance(address,uint256)": "27012",
            "generateRewards()": "infinite",
            "increaseAllowance(address,uint256)": "27017",
            "modifyTokenBuyPrice(uint256)": "24487",
            "name()": "infinite",
            "owner()": "2346",
            "renounceOwnership()": "28228",
            "resetRewards()": "infinite",
            "stake(uint256)": "150423",
            "symbol()": "infinite",
            "totalSupply()": "2349",
            "transfer(address,uint256)": "51230",
            "transferFrom(address,address,uint256)": "infinite",
            "transferOwnership(address)": "28422",
            "unstake(uint256)": "infinite"
        }
    }
}